:020000040800F2
:100000006807002039020008410200084302000886
:1000100045020008470200084902000800000000ED
:100020000000000000000000000000004B0200087B
:100030004D020008000000004F02000851020008B5
:10004000530200085302000853020008530200083C
:10005000530200085302000853020008530200082C
:10006000530200085302000853020008530200081C
:10007000530200085302000853020008530200080C
:1000800053020008530200085302000853020008FC
:1000900053020008530200085302000853020008EC
:1000A00053020008530200085302000853020008DC
:1000B00053020008530200085302000853020008CC
:1000C00053020008530200085302000853020008BC
:1000D0005302000861070008530200085302000899
:1000E000530200085302000853020008530200089C
:1000F000530200085302000853020008530200088C
:10010000530200085302000853020008530200087B
:10011000530200085302000853020008530200086B
:10012000530200085302000853020008530200085B
:10013000530200085302000853020008530200084B
:10014000530200085302000853020008530200083B
:10015000530200085302000853020008530200082B
:10016000530200085302000853020008530200081B
:100170005302000853020008530200080000000068
:10018000530200085302000800F002F800F044F89F
:1001900014A696E8000CB244B344DA4501D100F04D
:1001A0003BF8BAE80F000FA696E83000A5EB04056F
:1001B00004EB0607AAEB0704A7F101074FEA1515A0
:1001C0004FEA3414A4F10104AC4201D300F024F846
:1001D00013F0010F18BFFB1A43F0010300F001F800
:1001E000DBE71847A8060000B806000070470000CB
:1001F0000023002400250026103A28BF78C1FBD830
:10020000520728BF30C148BF0B6070471FB500F0D0
:100210002FFB1FBD10B510BD00F031F81146FFF7E0
:10022000F5FF00F0FBFA00F04FF803B4FFF7F2FF20
:1002300003BC00F057F80000094880470948004710
:10024000FEE7FEE7FEE7FEE7FEE7FEE7FEE7FEE786
:10025000FEE7FEE704480549054A064B70470000E3
:100260002D070008890100086801002068070020A8
:100270006803002068030020704770477047754688
:1002800000F02CF8AE4605006946534620F0070002
:10029000854618B020B5FFF7DDFFBDE820404FF0E0
:1002A00000064FF000074FF000084FF0000BAC467F
:1002B000ACE8C009ACE8C009ACE8C009ACE8C009CA
:1002C00021F007018D46704710B50446AFF300805A
:1002D0002046BDE81040FFF7A8BF00000048704767
:1002E0000000002001491820ABBEFEE726000200F6
:1002F0007047000082B0019000200090FFE7009856
:10030000019940F635425143B0EB411F05D2FFE75A
:10031000FFE7009801300090F1E702B0704700005D
:1003200040F2000CC4F2020CDCF8000020F4405053
:10033000CCF80000DCF8000040F48050CCF800005D
:100340000423C4F20203186820F0400018600C2255
:10035000C4F20202106820F4405010600821C4F278
:100360000201086820F440500860DCF8000020F426
:100370004040CCF80000DCF8000040F48040CCF8AD
:100380000000186820F080001860106820F44040D9
:100390001060086820F4404008601821C4F202018F
:1003A0004FF44000086070471821C4F202014FF476
:1003B00040000860704700001421C4F20201086880
:1003C00080F040000860086880F080000860704796
:1003D0000021C4F20201086820F470100860086867
:1003E00040F4201008600421C4F20201086820F4DF
:1003F000C06008600C21C4F20201086820F470108B
:1004000008600821C4F20201086840F47010086016
:100410002421C4F20201086820F47F600A681043B6
:1004200040F4EE600860704781B08DF803009DF8DD
:10043000031001F01F02012000FA02F31C2000EA61
:10044000D1014EF20012CEF20002885818438850B3
:1004500001B0704781B043F63001C4F20201086870
:1004600040F00100086043F64400C4F20200026854
:1004700042F0100202600968009100680090009844
:1004800001B0704780B588B040F26211C2F200013D
:1004900000200880FFE740F26210C2F200000088EE
:1004A00040F26011C2F200010988884200F33C81E9
:1004B000FFE740F26210C2F20000018840F26000E3
:1004C000C2F20000405C452806D1FFE7FFF774FF49
:1004D0000220FFF70FFF1EE140F26210C2F200009F
:1004E000018840F26000C2F20000405C6D280CD12F
:1004F000FFE7FFF761FF02200790FFF7FBFEFFF722
:100500005BFF0798FFF7F6FE04E140F26210C2F2CB
:100510000000018840F26000C2F20000405C6528E3
:1005200011D1FFE7FFF748FF02200690FFF7E2FE38
:10053000FFF742FF0698FFF7DDFEFFF73DFF069845
:10054000FFF7D8FEE5E040F26210C2F20000018839
:1005500040F26000C2F20000405C722816D1FFE752
:10056000FFF72AFF02200590FFF7C4FEFFF724FFE4
:100570000598FFF7BFFEFFF71FFF0598FFF7BAFECC
:10058000FFF71AFF0598FFF7B5FEC1E040F26210D1
:10059000C2F20000018840F26000C2F20000405C3C
:1005A00067281BD1FFE7FFF707FF02200490FFF742
:1005B000A1FEFFF701FF0498FFF79CFEFFF7FCFE8A
:1005C0000498FFF797FEFFF7F7FE0498FFF792FEF7
:1005D000FFF7F2FE0498FFF78DFE98E040F26210FC
:1005E000C2F20000018840F26000C2F20000405CEC
:1005F0006E2820D1FFE7FFF7DFFE02200390FFF710
:1006000079FEFFF7D9FE0398FFF774FEFFF7D4FEDB
:100610000398FFF76FFEFFF7CFFE0398FFF76AFE20
:10062000FFF7CAFE0398FFF765FEFFF7C5FE0398C4
:10063000FFF760FE6AE040F26210C2F2000001883B
:1006400040F26000C2F20000405C632825D1FFE761
:10065000FFF7B2FE02200290FFF74CFEFFF7ACFE60
:100660000298FFF747FEFFF7A7FE0298FFF742FE4A
:10067000FFF7A2FE0298FFF73DFEFFF79DFE0298EE
:10068000FFF738FEFFF798FE0298FFF733FEFFF7FB
:1006900093FE0298FFF72EFE37E040F26210C2F29E
:1006A0000000018840F26000C2F20000405C79283E
:1006B0002AD1FFE7FFF780FE02200190FFF71AFE24
:1006C000FFF77AFE0198FFF715FEFFF775FE019818
:1006D000FFF710FEFFF770FE0198FFF70BFEFFF724
:1006E0006BFE0198FFF706FEFFF766FE0198FFF725
:1006F00001FEFFF761FE0198FFF7FCFDFFF75CFECE
:100700000198FFF7F7FDFFE7FFE7FFE7FFE7FFE7E8
:10071000FFE7FFE7FFE7FFE740F26211C2F20001E7
:10072000088801300880B6E608B080BD4EF68851D2
:10073000CEF20001086840F4700008604EF60851DF
:10074000CEF200014FF000600860704741F20C01EA
:10075000C4F20101086840F40050086070470000CE
:1007600081B041F20000C4F2010000688006002858
:100770002BD5FFE741F20400C4F2010000688DF8B8
:10078000030040F26010C2F200000088FF281BDC6A
:10079000FFE79DF8030040F26013C2F200031A88DD
:1007A000511C198040F26001C2F2000188549DF88A
:1007B00003000A2807D1FFE740F26411C2F20001EA
:1007C00001200870FFE7FFE7FFE701B07047000076
:1007D00080B541F20C01C4F20101086820F4104018
:1007E000086041F21002C4F20102106820F4405087
:1007F000106041F20802C4F20102106840F2836303
:1008000018431060086840F020000860086840F055
:100810000C0008602520FFF707FE80BD80B582B080
:1008200000200190FFF716FEFFF77AFDFFF7D0FDDD
:10083000FFF7CEFFFFF78AFFFFF7B6FDFFF7BCFD1E
:10084000FFE740F26410C2F20000007801280ED1E8
:10085000FFE7FFF717FE40F26411C2F2000100202B
:10086000087040F26011C2F200010880FFE7E8E77B
:10087000F1EE100A4FF6FF71C0F2C03120EA01001C
:1008800040F04070E1EE100A704700009C0800083C
:0C0890000000002068070000F0010008D4
:0400000508000239B4
:00000001FF
