:020000040800F2
:10000000600600203902000841020008430200088F
:1000100045020008470200084902000800000000ED
:100020000000000000000000000000004B0200087B
:100030004D020008000000004F02000851020008B5
:10004000530200085302000853020008530200083C
:10005000530200085302000853020008530200082C
:10006000530200085302000853020008530200081C
:10007000530200085302000853020008530200080C
:1000800053020008530200085302000853020008FC
:1000900053020008530200085302000853020008EC
:1000A00053020008530200085302000853020008DC
:1000B00053020008530200085302000853020008CC
:1000C00053020008530200085302000853020008BC
:1000D00053020008530200085302000853020008AC
:1000E000530200085302000853020008530200089C
:1000F000530200085302000853020008530200088C
:10010000530200085302000853020008530200087B
:10011000530200085302000853020008530200086B
:10012000530200085302000853020008530200085B
:10013000530200085302000853020008530200084B
:10014000530200085302000853020008530200083B
:10015000530200085302000853020008530200082B
:10016000530200085302000853020008530200081B
:100170005302000853020008530200080000000068
:10018000530200085302000800F002F800F044F89F
:1001900014A696E8000CB244B344DA4501D100F04D
:1001A0003BF8BAE80F000FA696E83000A5EB04056F
:1001B00004EB0607AAEB0704A7F101074FEA1515A0
:1001C0004FEA3414A4F10104AC4201D300F024F846
:1001D00013F0010F18BFFB1A43F0010300F001F800
:1001E000DBE7184750030000600300007047000081
:1001F0000023002400250026103A28BF78C1FBD830
:10020000520728BF30C148BF0B6070471FB500F0D0
:100210007FF91FBD10B510BD00F031F81146FFF792
:10022000F5FF00F05FF900F04FF803B4FFF7F2FFBD
:1002300003BC00F057F80000094880470948004710
:10024000FEE7FEE7FEE7FEE7FEE7FEE7FEE7FEE786
:10025000FEE7FEE704480549054A064B70470000E3
:100260002D040008890100086000002060060020BD
:10027000600200206002002070477047704775469A
:1002800000F02CF8AE4605006946534620F0070002
:10029000854618B020B5FFF7DDFFBDE820404FF0E0
:1002A00000064FF000074FF000084FF0000BAC467F
:1002B000ACE8C009ACE8C009ACE8C009ACE8C009CA
:1002C00021F007018D46704710B50446AFF300805A
:1002D0002046BDE81040FFF7A8BF00000048704767
:1002E0000000002001491820ABBEFEE726000200F6
:1002F0007047000081B000200090FFE7009844F2B2
:100300003F21C0F20F01884205D8FFE7FFE70098C0
:1003100001300090F2E701B07047000040F2000C9D
:10032000C4F2020CDCF8000020F44050CCF80000CD
:10033000DCF8000040F48050CCF800000423C4F244
:100340000203186820F0400018600C22C4F2020278
:10035000106820F4405010600821C4F202010868BF
:1003600020F440500860DCF8000020F44040CCF855
:100370000000DCF8000040F48040CCF80000186871
:1003800020F080001860106820F440401060086879
:1003900020F4404008601821C4F202014FF44000EC
:1003A000086070470021C4F20201086820F4701050
:1003B0000860086840F4201008600421C4F20201BB
:1003C000086820F4C06008600C21C4F202010868CB
:1003D00020F4701008600821C4F20201086840F49B
:1003E000701008602421C4F20201086820F47F60C4
:1003F0000A68104340F4EE600860704781B043F62D
:100400003001C4F20201086840F00100086043F6C0
:100410004400C4F20200026842F01002026009685F
:10042000009100680090009801B070474EF6885126
:10043000CEF20001086840F4700008604EF60851E2
:10044000CEF200014FF000600860704781B08DF877
:100450000300FFE741F20000C4F20100006800065B
:10046000002801D4FFE7F5E79DF8030041F20401FD
:10047000C4F20101086001B07047000080B582B08D
:100480000190FFE70198007840B1FFE701980078FC
:10049000FFF7DCFF019801300190F3E702B080BD67
:1004A00041F20C01C4F20101086820F41040086018
:1004B00041F21002C4F20102106820F440501060B2
:1004C00041F20802C4F20102106840F2836318434B
:1004D0001060086840F008000860086840F40050A8
:1004E0000860704780B582B000200190FFF786FF5A
:1004F000FFF714FFFFF756FFFFF7D2FFFFE740F2C9
:100500002A50C0F60000FFF7B9FFFFF7F3FEF6E749
:10051000F1EE100A4FF6FF71C0F2C03120EA01007F
:1005200040F04070E1EE100A70475458204F4B0DD8
:100530000A000000440500080000002060060000DA
:04054000F0010008BE
:0400000508000239B4
:00000001FF
